:100000000C94A3000C94CB000C94CB000C94CB006C
:100010000C94CB000C94CB000C94CB000C94CB0034
:100020000C94CB000C94CB000C94CB000C94CB0024
:100030000C94CB000C94CB000C94CB000C94CB0014
:100040000C944A0A0C94CB000C94BA0A0C94940AAF
:100050000C94CB000C94CB000C94CB000C94CB00F4
:100060000C94EC0A0C94CB0007634236B79BD8A7DC
:100070001A39685618AEBAAB558C1D3CB7CC5763CD
:10008000BD6DEDFD753EF6177231BF000000803F7B
:1000900008000000BE922449123EABAAAA2ABECD97
:1000A000CCCC4C3E00000080BEABAAAAAA3E000009
:1000B0000000BF000000803F000000000008417801
:1000C000D3BB4387D1133D190E3CC3BD4282AD2B38
:1000D0003E68EC8276BED98FE1A93E4C80EFFFBE30
:1000E00001C4FF7F3F00000000000000000023006B
:1000F0002600290000000000240027002A0000003C
:100100000000250028002B0000000008000201006C
:1001100000030407000000000000000004040404C1
:1001200004040404020202020202030303030303A1
:10013000010204081020408001020408102001027E
:10014000040810200B0C11241FBECFEFD8E0DEBF37
:10015000CDBF12E0A0E0B1E0E6E1F9E202C0059017
:100160000D92A436B107D9F724E0A4E6B2E001C0AD
:100170001D92AA30B207E1F710E0C3EAD0E004C054
:100180002197FE010E944F13C23AD107C9F70E947E
:100190009F0C0C9489140C94000090E0FC01E85F23
:1001A000FE4F2491FC01E05DFE4F3491FC01E45EC2
:1001B000FE4FE491EE23C9F0222339F0233001F100
:1001C000A8F4213019F1223029F1F0E0EE0FFF1FE1
:1001D000E250FF4FA591B4918FB7F894EC91611163
:1001E00026C030953E233C938FBF08952730A9F059
:1001F0002830C9F0243049F7809180008F7D03C0FA
:10020000809180008F7780938000DFCF84B58F77D7
:1002100084BDDBCF84B58F7DFBCF8091B0008F771D
:100220008093B000D2CF8091B0008F7DF9CF3E2B6C
:10023000DACFCF93DF9390E0FC01E05DFE4F249195
:10024000845E9E4FFC0184918823C9F090E0880F62
:10025000991FFC01EC50FF4FA591B491FC01E250B5
:10026000FF4FC591D49161110DC09FB7F8948C9147
:10027000209582238C938881282328839FBFDF9138
:10028000CF910895623051F49FB7F8943C91822F3A
:10029000809583238C93E8812E2BEFCF8FB7F89432
:1002A000EC912E2B2C938FBFEACF3FB7F89480911F
:1002B000250390912603A0912703B091280326B52A
:1002C000A89B05C02F3F19F00196A11DB11D3FBF8E
:1002D000BA2FA92F982F8827BC01CD01620F711D5D
:1002E000811D911D42E0660F771F881F991F4A9557
:1002F000D1F708958F929F92AF92BF92CF92DF92E3
:10030000EF92FF924B015C010E9455016B017C0151
:100310000E9455016C197D098E099F09683E734042
:1003200081059105A8F321E0821A9108A108B1087E
:1003300088EEC80E83E0D81EE11CF11C81149104E4
:10034000A104B10429F7FF90EF90DF90CF90BF9008
:10035000AF909F908F90089508950895AF92BF92A7
:10036000CF92DF92EF92FF920F931F93CF93DF9381
:100370006C017B018B01040F151FEB015E01AE18B0
:10038000BF08C017D10759F06991D601ED91FC91D2
:100390000190F081E02DC6010995892B79F7C501FF
:1003A000DF91CF911F910F91FF90EF90DF90CF9051
:1003B000BF90AF900895FC01538D448D252F30E000
:1003C000842F90E0821B930B541710F0CF96089562
:1003D00001970895FC01918D828D981761F0A28D8F
:1003E000AE0FBF2FB11D5D968C91928D9F5F9F7355
:1003F000928F90E008958FEF9FEF0895FC01918D0B
:10040000828D981731F0828DE80FF11D858D90E077
:1004100008958FEF9FEF0895FC01918D228D892F14
:1004200090E0805C9F4F821B91098F7399270895FC
:100430008DE293E00E940C0221E0892B09F420E078
:10044000822F089580E090E0892B29F00E94180205
:1004500081110C9400000895FC01A48DA80FB92F00
:10046000B11DA35ABF4F2C91848D90E001968F73DC
:100470009927848FA689B7892C93A089B1898C91FB
:10048000837080648C93938D848D981306C002884A
:10049000F389E02D80818F7D80830895EF92FF9214
:1004A0000F931F93CF93DF93EC0181E0888F9B8D97
:1004B0008C8D98131AC0E889F989808185FF15C051
:1004C0009FB7F894EE89FF896083E889F989808174
:1004D0008370806480839FBF81E090E0DF91CF9143
:1004E0001F910F91FF90EF900895F62E0B8D10E065
:1004F0000F5F1F4F0F731127E02E8C8D8E110CC0D4
:100500000FB607FCFACFE889F989808185FFF5CF1E
:10051000CE010E942C02F1CFEB8DEC0FFD2FF11DCF
:10052000E35AFF4FF0829FB7F8940B8FEA89FB895B
:1005300080818062CFCFCF93DF93EC01888D8823B9
:10054000B9F0AA89BB89E889F9898C9185FD03C036
:10055000808186FD0DC00FB607FCF7CF8C9185FF1B
:10056000F2CF808185FFEDCFCE010E942C02E9CF32
:10057000DF91CF9108952091CC02260F3327331FAE
:1005800021323105ECF42091F002FC0190E080E092
:10059000243069F082E00895A091CC022191AC0151
:1005A00044555D4FA40FB52FB11D2C9301968617AE
:1005B00098F38091CC02680F6093CC0280E008959C
:1005C00081E008951092F00281E08093F20210928F
:1005D000F10261E082E10E94CD0061E083E10E94CE
:1005E000CD00E9EBF0E080818E7F808380818D7F7C
:1005F000808388E48093B80085E48093BC000895EC
:10060000CF93DF9391E09093AB028823B9F0C09130
:10061000B800D091BA008091BC008A7B8093BC0066
:1006200060E082E10E94CD0060E083E10E94CD00A5
:100630000E94E202D093BA00C093B800DF91CF913C
:1006400008950895E0911D0380911C03E81730F48C
:10065000F0E0EA57FD4F808190E008958FEF9FEF23
:10066000089590911D0380911C032FEF3FEF981781
:1006700048F4E92FF0E0EA57FD4F208130E09F5F1A
:1006800090931D03C901089580911C0390911D034F
:10069000891B990B0895CF92DF92EF92FF920F93EF
:1006A0001F93CF93DF937C01CB018A0120918502B8
:1006B000222389F0EB016B01C40ED51ECC15DD059C
:1006C00069F06991D701ED91FC910190F081E02DE5
:1006D000C7010995F3CF642F0E94BB02C801DF91C7
:1006E000CF911F910F91FF90EF90DF90CF900895E1
:1006F000CF93DF931F92CDB7DEB769832091850238
:100700002223F9F020911A03203258F021E030E042
:10071000FC013383228390E080E00F90DF91CF9142
:10072000089580911B03E82FF0E0EB59FD4F99816C
:1007300090838F5F80931B0380931A0381E090E086
:10074000ECCF61E0CE0101960E94BB02F7CFCF92C1
:10075000DF92EF92FF920F931F93CF93DF93FC01F1
:10076000C48121E020938502C093640210921B0390
:1007700010921A038385682B8AEC93E00E94780319
:10078000D0911A03D13208F092C00E9455016B013A
:100790007C018091F002811165C082E08093F002BB
:1007A00081E08093F2028FEF8093EF0210921403A6
:1007B000D0931303A5E6B2E0E3EFF2E080E0D813B4
:1007C00085C01092150380911503CC0FC82BC093E0
:1007D00015038091F102813009F07CC01092F10282
:1007E0000E9455016B017C01809115038093BB0031
:1007F0008091A7029091A802A091A902B091AA02AB
:10080000892B8A2B8B2B99F00E9455010091A7020E
:100810001091A8022091A9023091AA026C197D09B9
:100820008E099F090617170728073907E0F18091FD
:10083000BC0083FDD9CF85EC8093BC000E9455019C
:100840006B017C018091F002823009F445C08091F7
:10085000EF028F3F61F18091EF02803241F1809190
:10086000EF0225C08091A7029091A802A091A90251
:10087000B091AA02892B8A2B8B2B09F48ACF0E9474
:1008800055010091A7021091A8022091A902309170
:10089000AA026C197D098E099F09061717072807F8
:1008A000390708F076CF8091A6020E9400031092CB
:1008B0001B0310921A0310928502DF91CF911F91B2
:1008C0000F91FF90EF90DF90CF9008959D919193BD
:1008D0008F5F75CF85EEB0CF8091A7029091A8026F
:1008E000A091A902B091AA02892B8A2B8B2B09F423
:1008F000A9CF0E9455010091A7021091A802209152
:10090000A9023091AA026C197D098E099F09061768
:1009100017072807390708F095CFC5CF089590E04D
:1009200080E00895FC0183898B3051F480E492E4E7
:10093000AFE0B0E0FB0184A395A3A6A3B7A30895FD
:1009400080E894E8AEE1B0E0F5CFCF92DF92EF928D
:10095000FF92CF93DF93DC011796CC911797D0E0ED
:100960006111DC2F18962C91189730E0220F331F5D
:1009700026513F4F50E040E0F90185919491FC01F0
:10098000F080BA0190E080E0EF2DEC23ED1310C071
:100990004F5F5F4F1D96CD90DD90ED90FC9050978E
:1009A0006C157D058E059F0538F36FEF7FEFCB014A
:1009B000DF91CF91FF90EF90DF90CF9008958F92CD
:1009C0009F92AF92BF92CF92DF92EF92FF920F93DE
:1009D0001F93CF93DF93CDB7DEB7C054D1400FB68E
:1009E000F894DEBF0FBECDBF2FB7F8944091290316
:1009F00050912A0360912B0370912C032FBFFC01AF
:100A000001851285238534856A017B01C01AD10ACC
:100A1000E20AF30A97018601003D174021053105DE
:100A2000B0F4FC018189C05CDE4F0FB6F894DEBFE4
:100A30000FBECDBFDF91CF911F910F91FF90EF902F
:100A4000DF90CF90BF90AF909F908F9008958C01D2
:100A5000FC01418752876387748714821382128254
:100A60001182108262E085810E94190161E070E0CC
:100A700080E090E00E947A0161E0F80185810E94A7
:100A8000190160E0F80185810E94CD00F80186819E
:100A90008551823028F58BE291E10197F1F762E010
:100AA000F80185810E941901F801828990E0823065
:100AB000910538F0880F991F880F991F05970197A6
:100AC000F1F7F89460E0C8010E94A5046F3F7F4FE2
:100AD0008F4F9F4F61F4F801118A789480E0A3CF83
:100AE00064E170E080E090E00E947A01D8CF61E09C
:100AF000C8010E94A5046F3F7F4F8F4F9F4F59F34E
:100B0000CE0101967C015E019FEBA91A9EEFB90A06
:100B1000670160E0C8010E94A504F601608371834B
:100B20008283938361E0C8010E94A504F601648377
:100B3000758386839783F8E0CF0ED11CCA14DB043B
:100B400041F7789430E020E0F70180809180A28026
:100B5000B3804481558166817781FFEF8F169F06B0
:100B6000AF06BF0631F04F3F8FEF58076807780791
:100B700019F4F801118AB2CFF90183E0F595E795F0
:100B80008A95E1F7E00FF11F8081880F84169506A2
:100B9000A606B706F0F080832F5F3F4FF8E0EF0E18
:100BA000F11C2832310581F6F801448120818181D0
:100BB000280F3327331F8281280F311D8381820F35
:100BC000932F911D99274817190699F681E0818B7B
:100BD0002ACF8160E0CF089508950F931F93CF939C
:100BE0008C01C62F0E94A7036C2F6460C8010E946D
:100BF000A7036C2F6B7FC8010E94A70383EC90E0D2
:100C00000197F1F7CF911F910F9108950F931F93C3
:100C1000CF93DF938C01D62FC42F607F642B0E946B
:100C2000ED0580E1D89FB00111246C2BC801DF9144
:100C3000CF911F910F910C94ED05CF93DF93CDB71A
:100C4000DEB728970FB6F894DEBF0FBECDBF98E091
:100C5000E6E0F1E0DE01119601900D929A95E1F740
:100C60009091DE03981708F48FEF90E0880F991F9A
:100C700021E030E02C0F3D1F820F931FFC016081AB
:100C8000606840E086ED93E028960FB6F894DEBFEA
:100C90000FBECDBFDF91CF910C94060641E00E94BC
:100CA000060681E090E00895FB0101900020E9F73D
:100CB0003197AF01461B570BDC01ED91FC9102808F
:100CC000F381E02D09948F929F92AF92BF920F9380
:100CD0001F93CF93DF93CDB7DEB7A1970FB6F894EC
:100CE000DEBF0FBECDBF19A2423008F44AE08E012C
:100CF0000F5D1F4F842E912CB12CA12CA5019401C6
:100D00000E94560FE62FB901CA01EA3004F5E05DF2
:100D1000D801EE938D01232B242B252B79F790E01E
:100D200080E0109729F0BD018DE293E00E94540607
:100D3000A1960FB6F894DEBF0FBECDBFDF91CF9165
:100D40001F910F91BF90AF909F908F900895E95C95
:100D5000DFCFCF93DF93BC018DE293E00E94540676
:100D6000EC016AE571E08DE293E00E9454068C0F7D
:100D70009D1FDF91CF9108954F925F926F927F9266
:100D80008F929F92AF92BF92CF92DF92EF92FF929B
:100D90000F931F93CF936B017C01742EAC019B01C9
:100DA0000E9415126DE571E0811126C046015701C0
:100DB000E894B7F82FEF3FEF4FE75FE7C501B401C5
:100DC0000E94151281110CC02FEF3FEF4FE75FE734
:100DD000C501B4010E94F40F61E671E0181664F0D9
:100DE0002FEF3FEF4FE75FE4C701B6010E945311B9
:100DF0001816ACF465E671E08DE293E0CF911F9197
:100E00000F91FF90EF90DF90CF90BF90AF909F90A9
:100E10008F907F906F905F904F900C9454062FEFBF
:100E20003FEF4FE75FECC701B6010E94F40F87FD6B
:100E3000E1CF20E030E0A901C701B6010E94F40F24
:100E400010E000E087FF0AC06DE28DE293E00E94AF
:100E50004E028C01F7FAF094F7F8F094C0E060E0ED
:100E600070E080E09FE37C1641F020E030E040E25B
:100E700051E40E94F90FCF5FF6CFA70196010E94BF
:100E8000880F2B013C010E9472104B015C014AE06B
:100E90000E9463067C01E00EF11ECC23C1F1C50166
:100EA000B4010E94A1109B01AC01C301B2010E94D8
:100EB000870F4B015C016EE28DE293E00E944E02CF
:100EC000E80EF91EC15018F120E030E040E251E494
:100ED000C501B4010E9458112B013C010E947210FF
:100EE0004B01B12CA12C4AE0C501B4010E9463065C
:100EF000E80EF91EC501B4010E94A1109B01AC01CE
:100F0000C301B2010E94870F4B015C01DBCFC70117
:100F1000CF911F910F91FF90EF90DF90CF90BF90F6
:100F2000AF909F908F907F906F905F904F900895BB
:100F300085ED8093BC008091A7029091A802A091BA
:100F4000A902B091AA020796A11DB11D23E0B69592
:100F5000A795979587952A95D1F72091BC0024FDF8
:100F600003C01092F00208954091A7025091A80288
:100F70006091A9027091AA02452B462B472B69F379
:100F80000097A105B10541F02AE22A95F1F700C0CA
:100F90000197A109B109E1CF8091A6020C94000349
:100FA000CF92DF92EF92FF920F931F93CF93DF9335
:100FB000EB01FB01349620E2DF011D922A95E9F74F
:100FC00044E250E060E070E0488359836A837B83A9
:100FD000FC0144815581668177814C835D836E83FA
:100FE0007F834CE050E060E070E0488759876A8773
:100FF0007B872FB7F8944091290350912A03609181
:101000002B0370912C032FBF488B598B6A8B7B8BE2
:1010100002811381C8010E94DF04882349F0F8018E
:1010200086818B3028F08D3040F08551823070F110
:1010300060E070E080EC9FE71BC0618170E090E0B1
:1010400080E00E94A3102DEC3CEC4CEC5DE30E9490
:1010500058116B017C01F801608170E090E080E044
:101060000E94A3109B01AC01C701B6010E94880F2A
:101070006C8B7D8B8E8B9F8B81E0DF91CF911F914D
:101080000F91FF90EF90DF90CF9008956081718174
:1010900076276727762790E080E00E94A1102DEC4C
:1010A0003CEC4CEC5DE30E945811E2CF8F929F9292
:1010B000AF92BF92EF92FF921F93CF93DF93EB011A
:1010C000FB01349620E2DF011D922A95E9F744E204
:1010D00050E060E070E0488359836A837B83FC01C1
:1010E00044815581668177814C835D836E837F83E4
:1010F0004DE050E060E070E0488759876A877B8761
:101100002FB7F8944091290350912A0360912B0343
:1011100070912C032FBF488B598B6A8B7B8BE2809D
:10112000F380C7010E94DF04882341F0F701868124
:101130008C3009F455C038F48B30E1F060E070E099
:1011400080EC9FE73EC085518230C0F71281612F4D
:1011500070E0762F662766277F778381682B90E083
:1011600080E00E94A1102DEC3CEC4CEC5DE30E9471
:10117000581151C0628170E090E080E00E94A1109F
:101180004B015C01F701138117FF0AC0AC019B0101
:1011900060E070E080E89FEB0E94870F4B015C01EC
:1011A0001F70612F70E090E080E00E94A3102DEC92
:1011B0003CEC4CEC5DE30E945811A50194010E94A7
:1011C000880F6C8B7D8B8E8B9F8B81E0DF91CF9115
:1011D0001F91FF90EF90BF90AF909F908F900895D8
:1011E0001281612F70E090E080E00E94A1104B011D
:1011F0005C01F70163816F7070E090E080E00E9415
:10120000A3102DEC3CEC4CEC5DE30E945811A501C1
:1012100094010E94880F17FFD4CF9058D2CFCF935C
:10122000DF93EB01FC0183894BE050E06FE671E056
:101230008C30C1F058F44BE050E069E671E08B303F
:1012400089F04BE050E061E871E00CC04BE050E009
:1012500065E771E0853131F04BE050E06BE771E01C
:10126000863179F7CE010E947A141B86DF91CF91E7
:1012700008950F931F93CF93DF938C01EB0188E2C6
:10128000DB011D928A95E9F7F801828193810E9422
:101290000F0981E090E0A0E0B0E08C879D87AE87E9
:1012A000BF87F80184819581A681B781888B998B4E
:1012B000AA8BBB8B8CE090E0A0E0B0E08C8B9D8B88
:1012C000AE8BBF8BBE01828193810E949204D801B4
:1012D0001296ED91FC9183898C3009F441C078F429
:1012E0008B3009F1188E198E1A8E1B8E1C8E1D8E56
:1012F0001E8E1F8E18A219A21AA21BA22CC08551E5
:10130000823080F780E090E0A8ECB2E4888F998F7B
:10131000AA8FBB8F1C8E1D8E1E8E1F8E8DEC9CEC9B
:10132000ACECBDE314C080E090E0A0EAB2E4888FAA
:10133000998FAA8FBB8F80E090E0A0EAB1E48C8FF8
:101340009D8FAE8FBF8F80E090E0A0EAB0E488A3CD
:1013500099A3AAA3BBA3DF91CF911F910F910895E9
:1013600080E090E0AEEBB2E4E2CF0F931F93CF9317
:10137000DF938C01EB0188E2DB011D928A95E9F78E
:10138000F801828193810E940F0981E090E0A0E042
:10139000B0E08C879D87AE87BF87F80184819581F7
:1013A000A681B781888B998BAA8BBB8B8DE090E04F
:1013B000A0E0B0E08C8B9D8BAE8BBF8BBE01828199
:1013C00093810E949204D8011296ED91FC91838939
:1013D0008C3091F178F48B30B1F0188E198E1A8E12
:1013E0001B8E1C8E1D8E1E8E1F8E18A219A21AA275
:1013F0001BA21DC08531A9F1863179F780E090E00C
:10140000AAEFB2E432C080E090E0A8E4B2E4888FB2
:10141000998FAA8FBB8F1C8E1D8E1E8E1F8E80E013
:1014200090E0A0E0B0E488A399A3AAA3BBA3DF91B6
:10143000CF911F910F91089580E090E0A0E7B2E472
:10144000888F998FAA8FBB8F80E090E0A0EAB1ECE3
:101450008C8F9D8FAE8FBF8F80E090E0A0E0BFE3C8
:10146000E2CF80E090E0A0EAB2E4888F998FAA8F63
:10147000BB8F80E090E0A0E2B2EC8C8F9D8FAE8FAE
:10148000BF8F8DEC9CECACECBDE3CDCF0C94F11395
:101490000C94F1131F920F920FB60F9211242F93F9
:1014A0003F938F939F93AF93BF9380912903909124
:1014B0002A03A0912B03B0912C033091240323E045
:1014C000230F2D3758F50196A11DB11D209324033C
:1014D0008093290390932A03A0932B03B0932C03AA
:1014E0008091250390912603A0912703B0912803B2
:1014F0000196A11DB11D8093250390932603A0930F
:101500002703B0932803BF91AF919F918F913F9193
:101510002F910F900FBE0F901F90189526E8230F64
:101520000296A11DB11DD2CF1F920F920FB60F923E
:1015300011242F933F934F935F936F937F938F93D8
:101540009F93AF93BF93EF93FF938DE293E00E943D
:101550002C02FF91EF91BF91AF919F918F917F915D
:101560006F915F914F913F912F910F900FBE0F9010
:101570001F9018951F920F920FB60F9211242F9360
:101580008F939F93EF93FF93E0913D03F0913E0380
:101590008081E0914303F091440382FD1BC0908160
:1015A000809146038F5F8F7320914703821741F02C
:1015B000E0914603F0E0E35DFC4F958F8093460396
:1015C000FF91EF919F918F912F910F900FBE0F90F0
:1015D0001F9018958081F4CF1F920F920FB60F9233
:1015E00011242F933F934F935F936F937F938F9328
:1015F0009F93AF93BF93EF93FF938091B900887F40
:10160000803609F44AC0F0F5883209F4A7C018F50D
:10161000803109F49BC0B8F4882309F4F9C08830FC
:1016200009F494C0FF91EF91BF91AF919F918F9179
:101630007F916F915F914F913F912F910F900FBECE
:101640000F901F901895883109F488C0803251F7A7
:101650008093EF0214C0803409F49DC040F48033BD
:10166000B9F38833F9F68093EF0285ECB0C080358A
:1016700009F485C0883509F496C0883499F60E942B
:101680009807D0CF883909F48CC038F5883729F00D
:1016900050F4883611F0803729F683E08093F00209
:1016A0001092EE0257C0883809F47BC0803919F0D7
:1016B000803809F0B7CF8091EE02803208F071C017
:1016C000E091EE0281E08E0F8093EE028091BB00EC
:1016D000F0E0E253FD4F80833DC0803B39F0E0F401
:1016E000803A09F479C0883A09F09CCF84E080936D
:1016F000F0021092CD021092CC02E0911803F0910A
:10170000190309958091CC0281110FC081E080936B
:10171000CC021092AC0209C0803C09F4A6CF883CF0
:1017200009F4A3CF883B09F07DCFE091CD0281E0A1
:101730008E0F8093CD02F0E0E455FD4F80818093C1
:10174000BB009091CD028091CC0229C080911503FD
:101750008093BB0085EC8093BC0064CF9091140310
:1017600080911303981758F5E091140381E08E0FD0
:1017700080931403F0E0ED50FD4F8081E9CFE091BC
:10178000140381E08E0F809314038091BB00F0E07E
:10179000ED50FD4F808390911403809113039817AF
:1017A000C8F285E8D8CFE091140381E08E0F8093D2
:1017B00014038091BB00F0E0ED50FD4F80838091D9
:1017C000F20281115CCF81E08093F10284EA809380
:1017D000BC001092F00226CF85EC8093BC001092E2
:1017E000F0028091EE02803230F4E091EE02F0E0FF
:1017F000E253FD4F10826091EE0270E0E09116031B
:10180000F09117038EEC92E009951092EE020ACF48
:101810001092EF0234CFEDE2F3E01382128288EEF1
:1018200093E0A0E0B0E084839583A683B78322E1B0
:1018300031E03183208325EC30E03587248724ECA8
:1018400030E03787268720EC30E0318B208B21EC8D
:1018500030E0338B228B22EC30E0358B248B26EC6E
:1018600030E0378B268B118E128E138E148EEAEC9D
:10187000F3E01382128284839583A683B78384E284
:1018800091E091838083A2EEB3E084E015968C937F
:10189000159786E116968C931697E4E3F1E0E491B0
:1018A0001796EC931797E0E2F1E0E4911896EC9329
:1018B000189740E85EE360E070E01D964D935D93FD
:1018C0006D937C93509753968C93539780E591E05A
:1018D00055969C938E9354970A2E1B2E57961C92C6
:1018E0000E92112456974FEF5FEFBA0158964D9321
:1018F0005D936D937C935B9782E491E05D969C93FE
:101900008E935C970A2E1B2E5F961C920E921124CA
:101910005E9790964D935D936D937C939397E6EDD0
:10192000F3E01382128286E391E09183808387E261
:10193000848380E1818782E0828713860895CF9334
:10194000DF93CDB7DEB7AC970FB6F894DEBF0FBE0E
:10195000CDBF789484B5826084BD84B5816084BD38
:1019600085B5826085BD85B5816085BD80916E003D
:10197000816080936E00109281008091810082606E
:1019800080938100809181008160809381008091AB
:1019900080008160809380008091B100846080939A
:1019A000B1008091B00081608093B00080917A0096
:1019B000846080937A0080917A00826080937A00BC
:1019C00080917A00816080937A0080917A008068AB
:1019D00080937A001092C100E0913D03F0913E03A4
:1019E00082E08083E0913903F0913A031082E09124
:1019F0003B03F0913C038FEC808310924503E09110
:101A00004103F091420386E08083E0913F03F0912F
:101A10004003808180618083E0913F03F091400327
:101A2000808188608083E0913F03F0914003808152
:101A300080688083E0913F03F091400380818F7D37
:101A4000808361E085E00E94190161E086E00E94E8
:101A5000190161E087E00E94190161E088E00E94BD
:101A6000190160E081E10E94190160E084E00E94B8
:101A7000190162E08091E7030E9419012FB7F894E1
:101A80008091290390912A03A0912B03B0912C03FC
:101A90002FBF805D9740A109B1098093EB0390931C
:101AA000EC03A093ED03B093EE0387E38093F4037C
:101AB00010921D0310921C0310921B0310921A0324
:101AC0000E94E2028CEA91E090931903809318033C
:101AD0008DEA91E090931703809316031092DB0335
:101AE0008091E003823018F098E09093DB038093BC
:101AF000DE0362E370E080E090E00E947A01609192
:101B0000E10386ED93E00E94A70368EE73E080E0B6
:101B100090E00E947A0160E386ED93E00E94ED057B
:101B20000BE416E4C8010197F1F760E386ED93E05A
:101B30000E94ED05C8010197F1F760E386ED93E09F
:101B40000E94ED0583E592E00197F1F760E286EDF2
:101B500093E00E94ED056091DB03606240E086ED5A
:101B600093E00E94060684E08093DC0340E06CE092
:101B700086ED93E00E94060640E061E086ED93E08A
:101B80000E9406060BE31FE1C8010197F1F782E00E
:101B90008093DD0340E066E086ED93E00E94060658
:101BA00040E062E086ED93E00E940606C8010197DE
:101BB000F1F788E08093E10360E086ED93E00E9416
:101BC000A70340E061E086ED93E00E940606C801AD
:101BD0000197F1F780E00E941D0666E871E086ED4E
:101BE00093E00E94540681E00E941D066FE871E0B8
:101BF00086ED93E00E94540600E511E080E0282E77
:101C000080E0382E83E480937C0080917A008064A9
:101C100080937A0080917A0086FDFCCFC090780096
:101C2000D0907900F12CE12CC701B6010E94A110DF
:101C300020E030E040E85AE30E94581120E030E014
:101C400040EA50E40E9458114B015C0120E030E072
:101C50004AEF54E40E9458112B013C0120E030E08F
:101C600040EA50E4C501B4010E94F90F9B01AC01A8
:101C700060E070E080E89FE30E94870F9B01AC0169
:101C8000C301B2010E94F90F9B01AC0167E678EB3A
:101C900084E798E40E94F90F2EE63BED46EB5FE304
:101CA0000E94C5114B015C01A70196012850310922
:101CB00041095109A4E6B0E00E944B0F20EF33E048
:101CC00040E050E00E942C0F309323032093220326
:101CD000C501B4010E946B109B01AC01A4E6B0E009
:101CE0000E944B0F20EA36E841E050E00E942C0FA2
:101CF000CA01B9010E94A31060931E0370931F03D1
:101D0000809320039093210387E991E00E94A90624
:101D10008EE092E00E94A90661EB71E08DE293E013
:101D20000E945406609122037091230390E080E0AA
:101D30004AE00E94630689EC91E00E94A9066BECE0
:101D400071E08DE293E00E94540660911E03709151
:101D50001F03809120039091210342E00E94BC0662
:101D600089EC91E00E94A90668E873E180E090E0C8
:101D70000E947A018CE591E00E94A90685EE91E02F
:101D80000E94A90686E092E00E94A9061EA30DA368
:101D90008091F8039091F90398A78FA38091FA039B
:101DA0009091FB03A091FC03B091FD0389A79AA732
:101DB000ABA7BCA7BE016F5F7F4FCE0185960E9487
:101DC000560868E472E08DE293E00E9454066D8943
:101DD0007E898F89988D42E00E94BC0686E592E05C
:101DE0000E94A90682E491E09EA38DA38091000445
:101DF0009091010498A78FA380910204909103040D
:101E0000A0910404B091050489A79AA7ABA7BCA729
:101E1000BE016F5F7F4FCE0185960E94D0076AE5B5
:101E200072E08DE293E00E9454066D897E898F896D
:101E3000988D42E00E94BC0689EC91E00E94A906C0
:101E40002114310409F4DECE0E941802882309F41B
:101E5000D9CE0E940000D6CE052E97FB1EF400942A
:101E60000E94430F57FD07D00E94560F07FC03D076
:101E70004EF40C94430F50954095309521953F4F6B
:101E80004F4F5F4F089590958095709561957F4F66
:101E90008F4F9F4F08950E94780FA59F900DB49F7C
:101EA000900DA49F800D911D11240895A1E21A2E7A
:101EB000AA1BBB1BFD010DC0AA1FBB1FEE1FFF1FEE
:101EC000A217B307E407F50720F0A21BB30BE40B3E
:101ED000F50B661F771F881F991F1A9469F7609585
:101EE0007095809590959B01AC01BD01CF0108953F
:101EF000A29FB001B39FC001A39F700D811D11244B
:101F0000911DB29F700D811D1124911D089550588F
:101F1000BB27AA270E949F0F0C9419110E940B1136
:101F200038F00E94121120F039F49F3F19F426F482
:101F30000C9408110EF4E095E7FB0C940211E92FC4
:101F40000E942A1158F3BA1762077307840795078E
:101F500020F079F4A6F50C944C110EF4E0950B2EBC
:101F6000BA2FA02D0B01B90190010C01CA01A001EB
:101F70001124FF27591B99F0593F50F4503E68F146
:101F80001A16F040A22F232F342F4427585FF3CF87
:101F9000469537952795A795F0405395C9F77EF458
:101FA0001F16BA0B620B730B840BBAF09150A1F0A1
:101FB000FF0FBB1F661F771F881FC2F70EC0BA0F27
:101FC000621F731F841F48F4879577956795B795AF
:101FD000F7959E3F08F0B0CF9395880F08F09927AA
:101FE000EE0F9795879508950E94DE1008F481E022
:101FF00008950E940D100C9419110E94121158F0AE
:102000000E940B1140F029F45F3F29F00C9402115B
:1020100051110C944D110C9408110E942A1168F36F
:102020009923B1F3552391F3951B550BBB27AA2791
:1020300062177307840738F09F5F5F4F220F331FCB
:10204000441FAA1FA9F335D00E2E3AF0E0E832D093
:1020500091505040E695001CCAF72BD0FE2F29D096
:10206000660F771F881FBB1F261737074807AB0768
:10207000B0E809F0BB0B802DBF01FF2793585F4FDD
:102080003AF09E3F510578F00C9402110C944D11DA
:102090005F3FE4F3983ED4F3869577956795B795BF
:1020A000F7959F5FC9F7880F911D9695879597F9CA
:1020B0000895E1E0660F771F881FBB1F6217730743
:1020C0008407BA0720F0621B730B840BBA0BEE1F58
:1020D00088F7E09508950E9472106894B1110C94ED
:1020E0004D1108950E94321188F09F5798F0B92F32
:1020F0009927B751B0F0E1F0660F771F881F991F3D
:102100001AF0BA95C9F714C0B13091F00E944C1181
:10211000B1E008950C944C11672F782F8827B85F91
:1021200039F0B93FCCF3869577956795B395D9F794
:102130003EF490958095709561957F4F8F4F9F4F9E
:102140000895E89409C097FB3EF4909580957095AA
:1021500061957F4F8F4F9F4F9923A9F0F92F96E9F3
:10216000BB279395F695879577956795B795F11168
:10217000F8CFFAF4BB0F11F460FF1BC06F5F7F4F05
:102180008F4F9F4F16C0882311F096E911C0772317
:1021900021F09EE8872F762F05C0662371F096E820
:1021A000862F70E060E02AF09A95660F771F881FEF
:1021B000DAF7880F9695879597F90895990F000893
:1021C000550FAA0BE0E8FEEF16161706E807F90709
:1021D000C0F012161306E407F50798F0621B730BA4
:1021E000840B950B39F40A2661F0232B242B252B25
:1021F00021F408950A2609F4A140A6958FEF811DC8
:10220000811D089597F99F6780E870E060E0089568
:102210009FEF80EC089500240A94161617061806FE
:102220000906089500240A941216130614060506DA
:102230000895092E0394000C11F4882352F0BB0F6B
:1022400040F4BF2B11F460FF04C06F5F7F4F8F4FCE
:102250009F4F089557FD9058440F551F59F05F3F09
:1022600071F04795880F97FB991F61F09F3F79F0B8
:1022700087950895121613061406551FF2CF46953A
:10228000F1DF08C0161617061806991FF1CF8695BC
:102290007105610508940895E894BB2766277727A0
:1022A000CB0197F908950E94DE1008F48FEF08958E
:1022B0000E946B110C9419110E940B1138F00E94AE
:1022C000121120F0952311F00C9402110C940811B6
:1022D00011240C944D110E942A1170F3959FC1F3A3
:1022E000950F50E0551F629FF001729FBB27F00DC4
:1022F000B11D639FAA27F00DB11DAA1F649F662719
:10230000B00DA11D661F829F2227B00DA11D621F67
:10231000739FB00DA11D621F839FA00D611D221F21
:10232000749F3327A00D611D231F849F600D211D05
:10233000822F762F6A2F11249F5750409AF0F1F088
:1023400088234AF0EE0FFF1FBB1F661F771F881FF1
:1023500091505040A9F79E3F510580F00C94021116
:102360000C944D115F3FE4F3983ED4F38695779536
:102370006795B795F795E7959F5FC1F7FE2B880F97
:10238000911D9695879597F90895FA01EE0FFF1F15
:10239000309621053105A1F16115710561F4803890
:1023A000BFE39B0749F168949038810561F080385C
:1023B000BFEF9B0741F099234AF5FF3FE105310547
:1023C000210519F1E8940894E795D901AA2329F485
:1023D000AB2FBE2FF85FD0F310C0FF5F70F4A6954F
:1023E000E0F7F73950F019F0FF3A38F49F779F93F0
:1023F0000DD00F9007FC9058089546F00C940811EA
:1024000060E070E080E89FE308954FE79F775F9377
:102410004F933F932F930E94C5122F913F914F915D
:102420005F910E9458110C9422120E94DE10880BBA
:10243000990B089529F416F00C9402110C944C1188
:102440000C9408110E943211A8F39638A0F707F8EF
:102450000F92E8942BE33AEA48EB5FE70E946E1193
:102460000F920F920F924DB75EB70F920E940D130D
:10247000E8E6F0E00E9454124F915F91EF91FF91D6
:10248000E595EE1FFF1F49F0FE57E0684427EE0F69
:10249000441FFA95E1F74195550B0E9487120F9062
:1024A00007FE0C947B120895DF93CF931F930F9335
:1024B000FF92EF92DF927B018C01689406C0DA2EC6
:1024C000EF010E946B11FE01E894A59125913591D1
:1024D00045915591A6F3EF010E949F0FFE019701D0
:1024E000A801DA9469F7DF90EF90FF900F911F91A8
:1024F000CF91DF9108959B01AC0160E070E080E82E
:102500009FE30C94F90F0C9402110C9441130E9458
:102510003211D8F39923C9F3940F511DA3F39150AD
:10252000504094F059F0882332F0660F771F881FCF
:1025300091505040C1F79E3F51052CF7880F911DD7
:102540009695879597F908955F3FACF0983E9CF07B
:10255000BB27869577956795B79508F4B1609395F5
:10256000C1F7BB0F58F711F460FFE8CF6F5F7F4FE3
:102570008F4F9F4FE3CF0C944D1116F00C944113E5
:102580000C94081168940C9402110E943211A8F363
:102590009923C1F3AEF3DF93CF931F930F93FF9271
:1025A000C92FDD2788232AF02197660F771F881F00
:1025B000DAF720E030E040E85FEB9FE3883920F075
:1025C000803E38F021968F770E94880FE0E9F0E096
:1025D00004C00E94880FEDEBF0E00E9454128B01C2
:1025E000BE01EC01FB2E6F5771097595771F880BA3
:1025F000990B0E94A31028E132E741E35FE30E94B8
:102600006B11AF2D9801AE01FF900F911F91CF91EB
:10261000DF910E949F0F0C941911FA01DC01AA0F9F
:10262000BB1F9B01AC01BF5728F422273327442747
:10263000507820C0B75190F4AB2F002446953795C1
:102640002795011CA395D2F3002071F0220F331FB0
:10265000441FB395DAF30ED00C94870F61307105E7
:10266000A0E88A07B94630F49B01AC0166277727BA
:1026700088279078309621F02083318342835383DA
:1026800008959F3F31F0915020F487957795679595
:10269000B795880F911D9695879597F90895EE0F38
:1026A000FF1F0590F491E02D09940F931F93CF9392
:1026B000DF938230910510F482E090E0E09108040D
:1026C000F091090430E020E0B0E0A0E0309799F408
:1026D0002115310509F44AC0281B390B2430310576
:1026E000D8F58A819B816115710589F1FB0193837E
:1026F0008283FE0111C040815181028113814817FC
:102700005907E0F04817590799F4109761F01296AD
:102710000C93129713961C933296CF01DF91CF91B1
:102720001F910F9108950093080410930904F4CFAA
:102730002115310551F04217530738F0A901DB018B
:102740009A01BD01DF01F801C1CFEF01F9CF9093EC
:10275000090480930804CDCFFE01E20FF31F81939B
:1027600091932250310939832883D7CF20910604D1
:1027700030910704232B41F4209102013091030191
:102780003093070420930604209100013091010149
:102790002115310541F42DB73EB740910401509108
:1027A0000501241B350BE0910604F0910704E217A4
:1027B000F307A0F42E1B3F0B2817390778F0AC0164
:1027C0004E5F5F4F2417350748F04E0F5F1F509341
:1027D000070440930604819391939FCFF0E0E0E0DB
:1027E0009CCFCF93DF930097E9F0FC0132971382DF
:1027F0001282A0910804B0910904ED0130E020E0BC
:102800001097A1F420813181820F931F209106043B
:10281000309107042817390709F061C0F0930704C5
:10282000E0930604DF91CF910895EA01CE17DF0708
:10283000E8F54A815B819E0141155105B1F7E90137
:10284000FB83EA8349915991C40FD51FEC17FD070B
:1028500061F4808191810296840F951FE90199832B
:102860008883828193819B838A83F0E0E0E01296E3
:102870008D919C9113970097B9F52D913C911197EB
:10288000CD010296820F931F209106043091070418
:102890002817390739F6309751F51092090410922C
:1028A0000804B0930704A0930604BCCFD383C2836B
:1028B00040815181840F951FC817D90761F44E5F7D
:1028C0005F4F88819981480F591F518340838A81C6
:1028D0009B81938382832115310509F0B0CFF0935A
:1028E0000904E09308049ECFFD01DC01C0CF1382F0
:1028F0001282D7CFFB01DC014150504048F00190DB
:102900000D920020C9F701C01D9241505040E0F7E0
:062910000895F894FFCFCA
:1029160000000A048000000040001400540000007B
:1029260000004E02AE01DB019B020C02EA01FE0131
:102936000000000078034B038F0421034403310396
:102946002203000000004E06AE018F048E04000034
:102956000000EB05480AEC05D00739090000000025
:10296600EB05460AEC055608B5090D0A006E616EC0
:1029760000696E66006F7666004448543131004443
:1029860048543132004448543231004448543232BB
:10299600004448543F0056696E686572696100419B
:1029A600676E656C6C6F004C656974757261206446
:1029B60061204C756D696E6F7369646164653A2058
:1029C6000056616C6F7220646F20616E616C6F6778
:1029D6005265616428293A2000250056616C6F72A1
:1029E600206461206C65697475726120656D206C68
:1029F60075783A20004C65697475726120646520AB
:102A060054656D7065726174757261206520756DAF
:102A16006964616465002D2D2D2D2D2D2D2D2D2DF7
:102A26002D2D2D2D2D2D2D2D2D2D2D2D2D2D2D2DD0
:102A36002D2D2D2D2D2D2D2D2D2D2D2D2D2D2D2DC0
:102A46002D2D2D2D2D2D2D2D2D2D2D2D2D2D2D2DB0
:102A56002D2D2D2D2D2D2D0054656D7065726174F3
:102A66007572613A2000202A4300556D69646164DD
:042A7600653A20009D
:00000001FF
